:100000006F00E04900000000DA010000DC010000A0
:1000100000000000000000000000000000000000E0
:1000200000000000000000000000000000000000D0
:100030009C040000000000009C0400000000000080
:100040009C0400009C0400009C0400009C04000030
:100050009C0400009C0400009C0400009C04000020
:100060009C0400009C0400009C0400009C04000010
:100070009C040000DE0100009C0400009C040000C1
:100080009C0400009C0400009C0400009C040000F0
:100090009C0400009C0400009C0400000000000080
:1000A000511126C022C206C4828282441244A24058
:1000B00031018280634E050263C305042E86AA8542
:1000C0007D5515C285466378B6006356C0000606A6
:1000D0008606E36CB6FE014563E4C500918D558D3F
:1000E00085820582F5FA82808682C93F2E858282CA
:1000F0003305A04063D70500B305B040C1B7B305D1
:10010000B0408682653F3305A0408282868263C705
:100110000500634905005D372E858282B305B04036
:10012000E35B05FE3305A040513F3305B0408282BA
:1001300000003D432A876373C3029377F700BDEF46
:10014000ADE5937606FF3D8ABA960CC34CC30CC747
:100150004CC74107E36BD7FE11E28280B306C34070
:100160008A069702000096966780A6002307B700CC
:10017000A306B7002306B700A305B7002305B70001
:10018000A304B7002304B700A303B7002303B700F9
:10019000A302B7002302B700A301B7002301B700F1
:1001A000A300B7002300B700828093F5F50F939664
:1001B0008500D58D93960501D58D61B7939627005F
:1001C0009702000096968682E78086FA9680C1178D
:1001D0001D8F3E96E374C3F8A5B701A001A071116D
:1001E00022C03724014093050022130504405D21FD
:1001F00015C593050022130504405D298327C444D7
:1002000013070020C207C183636EF700B7170140D0
:1002100003A7C780759B23A6E7809D2B024411018D
:100220007300203013072023E379F7FEB71701404E
:1002300003A7C78013672700F9BFEFF27FE6854564
:100240001145212585451305000201258545130526
:100250000020E52B85450545CD2B0145E92B85453E
:100260000545192599B5EFF2BFE3511189473714B8
:1002700001407C80C1473EC48A85894713050480BC
:100280003EC223110100152985478A851305048084
:100290007C8002C41D21930700047C808A8593071B
:1002A0008002130504403EC409293101FDBBEFF271
:1002B0003FDF2111614681450A85A53D3724014074
:1002C000130504409D24B70706003EC68A8585476E
:1002D00013050440230AF10002C002C202C402C88E
:1002E000BD248D460146130504408145D92C1305D4
:1002F000044085456524130504408545412605468F
:1003000093050022130504405524610179BBEFF2E7
:100310003FD951113705004002C002C22314010029
:10032000ED238D473EC08A859307301F3705004077
:100330007C8223040100BD23854537050040F12B55
:100340009305000237050040ED2385453705004041
:100350004D23310199BBEFF2BFD46111054502C0B5
:1003600002C23529C1281305000E6D210545492912
:10037000E935D53D2D3F613F85473EC20A8593074C
:10038000D0117C8023010100052137070020B7E749
:1003900000E023A0E72837F700E0832707D1DD9BA3
:1003A0002328F7D073005010CDBFEFF27FCF371462
:1003B00002401C403707FFFC414593E717001CC073
:1003C0005C40F98F5CC01C403707F7FE7D17F98F42
:1003D0001CC01C403707FCFF7D17F98F1CC05C4018
:1003E00041777D17F98F5CC0B7079F001CC41D299A
:1003F0001C4C93E707021CCCB717014003A707402A
:10040000938607401377F7F023A0E74003A7074040
:100410001367070823A0E74089479CCAB727024013
:100420009843719B98C3984398C35C4093E7070235
:100430005CC0A5B9EFF2DFC6371702405C43370452
:1004400000209146B18B130404016385D700A146B7
:100450006380D704B7376E01938707601CC0B71657
:100460000240DC420840918313F7F700B7070020F1
:1004700093870700BA978C23DC4293F5F50F93F727
:1004800007083357B50099E315392A8718C031B9E1
:100490005C43B777DC02938707C0C9B701A0970117
:1004A00000209381A137138181FE170500001305F9
:1004B000254A970500209385E5B41706002013060A
:1004C000E6B563FAC5008322050023A05500110597
:1004D0009105E3EAC5FE17050020130525B497052D
:1004E00000209385E5B36377B5002320050011054F
:1004F000E36DB5FEB722000093820288739002304C
:100500008D4273904280970200009382A2AF93E2E3
:10051000320073905230EFF05FE99702000093824F
:10052000C2E37390123473002030B72701409387E1
:100530000740631DF500EFF2BFB6854513050020A7
:1005400099268145130500203D2E85B682805C41A9
:100550003707F1FF1307F7EF7D8FDC419441A207C6
:10056000D58FD98F5CC11C4537F7F1FF1307D77FB3
:10057000D4457D8F9C49D58F94458606D58FD98FDC
:100580001CC55C55370710FF7D177D8FDC29FD17D3
:1005900093F7F70FD207D98F5CD582801C4589C5A8
:1005A00093E717001CC58280F99BEDBF5C4193F572
:1005B000F50F01C6DD8D4CC1828093C5F5FFFD8D21
:1005C000DDBFA54763F8B704138765FF93171700CE
:1005D0008322C500BA971D433313F3001343F3FF7F
:1005E00033735300B397F600B3E767005CC59947D0
:1005F00063E3C7047D16931726003E965859FD47BE
:10060000B397C70093C7F7FFF98FB395C500DD8D8A
:100610004CD982809397150003230501AE971D479F
:100620003317F7001347F7FF33776700B397F600E8
:100630005D8F18C96DBFB14763E2C7026516931796
:1006400026003E961859FD47B397C70093C7F7FF9A
:10065000F98FB395C500DD8D0CD982804D16131727
:10066000260054553A96FD47B397C70093C7F7FF46
:10067000F58FB395C500DD8D4CD582801C4591C5A5
:1006800037071000D98F1CC582803707F0FF7D1710
:10069000F98FD5BF5841144193D78500F58F99C77D
:1006A00013F5F50F798D3335A000828001458280E6
:1006B000A18193C5F5FF0CC182809C45611122C2C6
:1006C00026C013F7070113F3F70001C7D8413363BE
:1006D000E30092211377F60F29C783230500014712
:1006E00013048002930480048546B395E600B37634
:1006F000B6006392D50293122700BD46B39656000A
:1007000093C6F6FFB3F37600B3125300B3E372005F
:10071000639787064CC90507A146E317D7FC23203A
:1007200075001307F00F6378C70483234500A146C3
:1007300013048002930480040547B312D700337773
:1007400056006394E202139726000117BD45B39546
:10075000E50093C5F5FFB3F375003317E300B3630A
:10076000770063928702232A550085064147E39567
:10077000E6FC232275001244824421018280E39C1E
:1007800097F80CC949BFE39297FE23285500F1BFA3
:10079000AD67373700409387A7AA1CC38280B7078D
:1007A000002023ACA7008280B707002083A6870122
:1007B000854718216390F6021C31639CD7023C21C7
:1007C0009A0793E707F8B7E600E093F7F70FBA96B2
:1007D0002380F6408546935757003397E6005441EF
:1007E00089CE938707048A07B7E600E0B69798C3D7
:1007F0008280EDF33C219A07F9B793870706E5B7A6
:10080000377700401C4309C593E707011CC382806A
:10081000BD9BEDBF377700401C4393F7F7F15D8D2B
:1008200008C38280371702401C430E0593F777F008
:100830005D8D08C38280B7160240DC424177130702
:10084000F77FF98F5D8DC8C2828099C53717024046
:100850001C4F5D8D08CF8280B7170240984F13451B
:10086000F5FF798D88CF828099C5371702405C4F9C
:100870005D8D48CF8280B7170240D84F1345F5FFF2
:10088000798DC8CF828099C5371702405C475D8D4E
:1008900048C78280B7170240D8471345F5FF798DC6
:1008A000C8C782801E2137370140130707C0C2071F
:1008B000C1836306E500370700406316E500BA21EF
:1008C00093F7F7F8D98FFA2193F7F7CFC207C183CF
:1008D000D98F1EA1DE215EB59E211EB5B73701401E
:1008E000938707C06314F5009C251EB985475EA950
:1008F00082801E2189C593E717001EA18280C2074E
:10090000C183F99BC207C183CDBF1E25C207C18326
:10091000E19BC207C1831EA582801E2189C593E782
:1009200047001EA18280C207C183ED9BC207C1831D
:10093000CDBF5E21C207C18393F7F7F8C207C18319
:0C0940005EA15E21DD8D4EA182800000D2
:10094C000102030405060708010203040506070853
:08095C0000127A000000000007
:00000001FF
